S01700004763634170706C69636174696F6E332E7372656359
S113000071C000008EC000008CC000008AC00000D7
S113001088C0000086C0000084C0000082C00000C8
S113002080C000007EC000007CC000007AC00000D8
S113003078C0000076C0000074C0000072C00000E8
S113004070C000006EC000006CC000006AC00000F8
S113005068C0000066C0000064C0000062C0000008
S113006060C000005EC00000F2C000005AC0000082
S113007058C0000056C0000054C0000052C0000028
S113008050C000004EC000004CC000004AC0000038
S113009048C0000046C0000044C0000042C0000048
S11300A040C000003EC000003CC000003AC0000058
S11300B038C0000036C0000034C0000032C0000068
S11300C030C000002EC000002CC000002AC0000078
S11300D028C0000026C0000024C0000022C0000088
S11300E020C0000011241FBECFEFD1E2DEBFCDBF80
S11300F000E00CBF12E0A0E0B2E0EAEEF2E000E0C3
S11301000BBF02C007900D92A032B107D9F722E0CD
S1130110A0E2B2E001C01D92A132B207E1F7C2D061
S1130120E2C06ECF87B1876F87B988B1807888B90C
S1130130089598B19F7098B998B1282F207F922B79
S113014098B940984198429AEFEFF7E43197F1F764
S113015000C00000429898B19F7098B998B18295F8
S1130160807F892B88B940984198429A8FEF97E411
S11301700197F1F700C000004298089598B19F706C
S113018098B998B1282F207F922B98B9409A41981A
S1130190429AEFEFF7E43197F1F700C0000042987C
S11301A098B19F7098B998B18295807F892B88B94E
S11301B0409A4198429A8FEF97E40197F1F700C073
S11301C0000042980895CF93DF93EC01888188233F
S11301D029F02196D3DF89918111FCCFDF91CF9152
S11301E0089586E69EE00197F1F7000088E2A1DF1A
S11301F081E09FDF86E09DDF8EE09BDF80E899CF82
S1130200089580E484B98EDF1092050181B18F6076
S113021081B982B1807F82B9EAE0F1E080818861AE
S11302208083EBE0F1E08081886180830895E1ECD4
S1130230F0E010821092C00086E08093C2008FE547
S11302408093C4001092C50088E9808308951F92AA
S11302500F920FB60F9211240BB60F928F93EF9358
S1130260FF93E6ECF0E0808180932002808380910C
S11302702002873309F415B880912002893311F4E0
S113028080E485B9FF91EF918F910F900BBE0F9091
S11302900FBE0F901F901895F894B3DFA2DFC7DF4D
S11302A078940895F9DF80E092E08DDF80EC41DFFF
S11302B08AE092E088DF2FEF8FEF9CE221508040AC
S11302C09040E1F700C000008FE092E07CDF2FEF68
S11302D08FE794E0215080409040E1F700C0000097
S10D02E081E027DFF1CFF894FFCF8F
S11302EA47505320444154413A004C41543A005433
S11302FA687265617420206465746563746564005A
S9030000FC
